S113F800FEA0006E00FEA0066E00FEA00A6E00427E
S113F810FA1643FA5444FA0B47FA254CF8D04DF93A
S113F8201D4EFA3750FB0252FA5C53F9FE54FA505B
S113F83055FA1145FD0556FA1DA078FB76FBA0206C
S113F840037EFBDE7EFBE28D0CB7A03E8D07B7A0E6
S113F8503FFEA03E398D5348484848168D4C1B1630
S113F860FBA03CF7A03C3944444444840F8B3081D2
S113F8703923028B077EF9597EF9668DF808A600B4
S113F880810426F7398D17CEFCAE8DF28DB9FFA019
S113F890028D0BCEFCB98DE68DADFFA00439FFA01F
S113F8A03ECEFC868DD8FEA03E398DCC80302B6AAE
S113F8B081092F0A81112B6281162E5E800739A6D9
S113F8C0008DA4A6000820A38DF58DF3862020A525
S113F8D086118DA1B6A0448A40B780087CA0168DFD
S113F8E09720037EF9A4815326F58D8C8139272A2C
S113F8F0813126EB7FA03CBDF8558002B7A03DBD09
S113F900F847BDF8557AA03D2709A700A1002606AF
S113F9100820EF5C27C9863F8D3F7EF9BABDF847C2
S113F9208DAAFEA03E8DA3098D3C810A2712815E1B
S113F9302711BDF8ACBDF857A700A10026D820E8D0
S113F940082005860A8D1209FFA03ECEFC7EBDF874
S113F9507ECEA03EBDF8C820C937F680085757248C
S113F960F9B780093339B680084724FAB680098488
S113F9707F817F27F17DA01627DF398EF838CEA04E
S113F9800832A700088CA01626F76F00088CA08008
S113F99026F886D0B7A0798603B780088611B7A069
S113F9A044B78008BEA008BDF89E200220B8CEFC53
S113F9B08DBDF87ECEF9EBFFA006BEA008B6A0442C
S113F9C0B780087FA016CEFC7CBDF87E8D981620EB
S113F9D0022086BDF8CCCEF80FE100270A080808FB
S113F9E08CF83926F420D3EE016E00BFA008BDF8D0
S113F9F09E86428DDCBDF8CC86028D6E205E8DAC79
S113FA0081312798861520967EF84786018D5B20E4
S113FA10568DF54F20F7BDF89E860220F08DE986BD
S113FA20048D4720F18DE186FF8D3F30B6A03EA7BF
S113FA3005B6A03FA7063BCE00017FA043FFA01A56
S113FA40FEA008EE06FFA017A600B7A0197EFBCB08
S113FA508DB620E67CA043CE000120E1BDF89ECE09
S113FA60FC98BDF87E8D7B7EF9BABFA040B7A03C60
S113FA70CEA01CB6A03CAE00272D7DA04227364D5B
S113FA802B21A61036B6A03C2737810127418102DD
S113FA90274908088CA02C26DA4F7DA03C2A014C6B
S113FAA0B7A042BEA04039810426E7BEA03EAF0005
S113FAB07AA03C20DD4D2ACD3432A710863F362073
S113FAC0D1A600B1A03E26CAE601F1A03F26C36F2D
S113FAD0006F0120BD7EF8CA7EF8C8BEA0408DF834
S113FAE020B2BDF89EFEA008088DEA8DE88DE68D53
S113FAF0E78DE5CEA0088DE0390D0A000000005323
S113FB003104BDF8858612BDF875C6194FBDF87568
S113FB105A26F9FEA002FFA040B6A005B0A041F607
S113FB20A004F2A040260481102502860F8B04B79E
S113FB30A03D8003B7A03CCEFAF9BDF87E5FCEA00D
S113FB403D8D2ECEA0408D298D27FEA0408D227A9A
S113FB50A03C26F9FFA0405337308D1533FEA0405A
S113FB6009BCA00426B3BDF89ECEFC71BDF87E206E
S113FB7032EB007EF8BFBFA0088603BDFA6A306D81
S113FB800626026A056A06EE05BCA0172718A60019
S113FB90813F260C306C0626026C05FEA00C6E001C
S113FBA0BDFAE27EF9BAB6A019A7007DA043270FDB
S113FBB07FA04386FFBDFA6A7FA0177FA0183BBDD4
S113FBC0FAE2FEA01A09FFA01A27D8B6A019B7A016
S113FBD00E8D704D2A3532348A10067EA00E8602B0
S113FBE02029FEA017A60108082B128D16FFA017C6
S113FBF0A600B7A019863FA700BEA0083B094C2663
S113FC00FC20EA4D2704084A26FC39FEA017E6002A
S113FC10C16E271AC17E271DC1AD2712C1BD27158C
S113FC20C13B2715C1392716C18D27B620BDA601B2
S113FC3030EE0320B6EE0120B430EE0C20AF30EEEF
S113FC400720AA1644444444CEFC618DB6A600267F
S113FC500F8602C18C2708C1CE2704C18E26014C11
S113FC6039010182010101020300020203000202C0
S113FC70035339303330303030464304130A0D1403
S113FC80000000002A040D0A00000000044D494B46
S113FC9042554720322E3004434320422020412045
S113FCA0202058202020205020202020530442458A
S113FCB0472041444452203F04454E44204144449B
S113FCC052203F0445584F525441504520342E335E
S113FCD00443204C204420533A200446494C4520F8
S113FCE049443A2004535441525453544F502050E1
S113FCF0414745533A200453504545443A2004BDF6
S113FD00F89E7EF87E8D087EF9A4863FBDF875CEF8
S113FD101B26FFA049CEFCC48DE5CEFCF78DE0BDCB
S113FD20F85581202605CE0B0D202281162605CEFE
S113FD300D11201981122605CE12182010810426D7
S113FD4005CE35502007810826C0CE1B26FFA049CA
S113FD50CEFCD18DAABDF878815327BEB7A04BCE77
S113FD60FCDB8D9BBDF847FFA045BDF89EB6A04BBC
S113FD7081442611CEFCE58D89BDF847FFA047BD1F
S113FD80F89E7EFF3781432709814C27097EFD0AAF
S113FD9020048601200286E7B7A04B7FA04C863959
S113FDA0B7A04DBDFF7B8D5E27228D54271EC12039
S113FDB0270AC11026F48D15271220EE7DA05327A3
S113FDC00B2B04862D2002862BBDF875398D2EF75A
S113FDD0A04E7FA04FFEA04E8D232749BDA04B0807
S113FDE07CA04F26F37AA0538D138D11B6A051BA7F
S113FDF0A05226048647200286427EFF787EFF6F4B
S113FE00202486588DF48D1E271BC10826F88DEDFD
S113FE10F1A04526ED8DE6F1A04626E686488DDA6A
S113FE208DDBF7A053397FA04E7FA05078A0507986
S113FE30A04E8D2427EFB6A04EF6A050818926EC63
S113FE40C1AF26E87FA0517FA052C602F7A0508D13
S113FE500727D278A05024F75F5A271F8D4325F92E
S113FE605A27188D3C24F9F6A0495A270E8D3225BD
S113FE70F95A27078D2B24F97CA050B6A05046468A
S113FE808480B8A051F6A052584924048880C8053B
S113FE90B7A051F7A052F6A050BDFF75847F811B17
S113FEA0397EFF69368DD9320D49200632368DD020
S113FEB03248C60ABDFF6C37F6A04A5A26FD3359AC
S113FEC024F2364826E631398D2E8D2C86898D28EC
S113FED086AF8D247FA0517FA052398D1B8D198D43
S113FEE0E786088D13B6A0458D0EB6A0468D09B6DB
S113FEF0A048B0A0474C8D007EFF728DCB86208D2C
S113FF00F720F58DC386108DEFB6A04E8DEA7FA045
S113FF104FFEA04EA6008DE0087CA04F26F68D076C
S113FF2086448D544F20D1B6A052B7A04FB6A051ED
S113FF308DC6B6A04F20C18D458DA0B6A047B7A0F1
S113FF404E7AA04E7CA04E8DBAB68009847F811B68
S113FF502708F6A048F1A04E26EA8D9F397F800538
S113FF608604B78004B78005397EFF817EFF8E7ECC
S113FF70FE4A7EFEA47EFF867EFF8A7EFF5D7EFFB4
S113FF805DB680044639B6800939B7800939F780EF
S113FF90043937C60837305F58492404EB01890017
S113FFA06A0026F431313934306F004D2A03406C35
S113FFB0005D2A03506C008DD93066002404405043
S113FFC08200313936A6002B293686083630A6023F
S113FFD0A101241C58492404AB012003A0015C6A3C
S113FFE00026F10D594D2A045AAB010A3131313939
S108FFF03131310B3931
S10BFFF8F800F80AF805F97B92
S9030000FC
