S1130200BDC2878600CE0090A700088C00C026F8E7
S1130210BD05FA860497AC7C00B5861897AB7F00C1
S1130220987F00A8BD02B3BDC079BD02CC860197FA
S1130230AA861C97A68D6C7F00B27F00B1BD02F523
S113024096A8810827048D4520F3BD065796B184EE
S1130250012607BD03CA969826BD96B2260ABD029A
S1130260F5969C2635BD039C96B184032607BD04F0
S11302708D969B26258D1696B14C810C26014F97A1
S1130280B196B24C810326014F97B220C0D6B086F6
S11302900901014A26FC5A26F639BD0582BDC2C4AD
S11302A07E0200CE008886FF97A5A700088C0090E8
S11302B026F839CE00C0DF904FC628C1102E028622
S11302C0FFA7008B08843F085A26F039CE00C07F70
S11302D000A1C60537C60837DF92A6002B0597A0F4
S11302E0BD0667DE9208335A26ED96A18B0597A1C9
S11302F0335A26E0397F009DDE90A60097A02B2379
S113030096B391B42D068D4D969A26148D29BD066B
S113031067DE90A6009BAA843FA70097A0BD06674E
S11303207C009DDE90088C00E826058D18CE00C068
S1130330DF90969D27C23996914444448407164819
S1130340481B97A13996A84C97A8816026067F0080
S1130350A87000AA397F009A8DDDC104272D9691DB
S11303608B089793DE92A60081FF261EDE9086FFFF
S1130370A700BD0667DE9296A0A70096A18B0597FD
S1130380A1BD06677F00B37C009A397C009CBD0642
S1130390678DE8BD069AC664BDC2E1398601B580A1
S11303A0102610BD065796A6810227034A97A6BDBC
S11303B00657398602B58010260FBD065796A681CA
S11303C03B2C034C97A6BD06573996A52B10271630
S11303D0BD063C7A00A5BD063C963F262239860818
S11303E0B58010270939BD063C86FF97A53996A626
S11303F08B0297A4861B97A5BD063C7C00B339CE1F
S11304000088A60091A42606A60191A5270A08083B
S11304108C009026ED8D0D3986FFA700A701BD063F
S1130420818DC63996A5C605BD062B1648481B976F
S1130430A1174848488AC09793C608DE92A6002BA5
S11304400B96A4A0002A014081042F077C00935A34
S113045026E939A60097A086FFA700BD03E6C601DA
S1130460BD05E4BD069AC603BDC2E1BD069ABD063C
S113047067BD05F17A00AB2701397C009896B581F8
S11304800A26067C00AC7C00ACBD0582397F00994D
S1130490CE0088D6AFD7AEDF94A60097A22B2CA6A9
S11304A00197A3811F2730BD064FDE947C00A396DD
S11304B0A3A701BD064F963F2707BD04E7969B26D9
S11304C009DE940808D6AE5A26CB39969926F296B8
S11304D0B126EE8D5820EA8D0220E6BD064FDE944B
S11304E086FFA700A7013996A491A2260F96A5918D
S11304F0A326098DE9BD0681BD03E93996A3811CB4
S11305002C01398DD6BD06ACBD06CBC664D721C639
S113051040BDC2E57A00AC2E047C009B39BD058247
S1130520BDC079BD02A3BD02CCBD065739BDC132E1
S1130530C60837840797978620C6053797969A97F3
S11305408AC09793DE92A6002A1896968008335A9A
S113055026E99697D6B3C40127024A4A4C335A2651
S1130560D13933338B0297A2DE94A7009696444484
S1130570441648481B8B0397A3A701BD064F7C0074
S113058099394FCE01C0BDC07D43CE01C8BDC07DE9
S11305908610BD06BD862CBD06BD8604BDC3E0968F
S11305A0B5CE00B6BDC1E0CE00B78D40088D3D8606
S11305B018BDC3E096A7CE00B6BDC1E04FA700CEDC
S11305C000B6C604378D2508335A26F88633BDC3D2
S11305D0E0CE00AC8D168639972ECE06D8C604BD63
S11305E0C226C6C8D7207D002026FB39A6007EC3BC
S11305F0D296A781FA27037C00A7C62886FFBD06EA
S11306002B1696A7BD062B1686401097B086FA9037
S1130610A7C640BD062B8B0197B48604D6B5C10688
S11306202C064AC1032C014A97AF397F00AD5D27E0
S1130630081025057C00AD20F896AD3996A4972EB8
S113064096A5972FC601CE06D77F003F7EC2269679
S1130650A2972E96A320EB96A6972E861C972FC6BC
S113066004CE06D87EC226C60496A1972F96A097DC
S11306702E84012706CE06E07EC226CE06DC7EC28C
S1130680268D05C602BD05E496A44A972E96A54A72
S1130690972FC603CE06EA7EC22696A04A972E96C8
S11306A0A14A972FC606CE06E47EC22696A64A978E
S11306B02E861B972FC605CE06ED7EC226972E8664
S11306C019972FC607CE06F27EC226CE010063001C
S11306D0088C020026F839802070F888F8A8F850B1
S11306E0F8A8F8887CFEFEFEFE6CA040A0387CFED4
S10D06F0FEFEF0F0F0F0F0F0F0F080
S1130700CE02004FE6001B088C070026F797FF7EF9
S1050710C360C0
S9030000FC
